{
  "_format": "hh-sol-artifact-1",
  "contractName": "MyContract",
  "sourceName": "contracts/token.sol",
  "abi": [
    {
      "inputs": [],
      "stateMutability": "nonpayable",
      "type": "constructor"
    },
    {
      "inputs": [
        {
          "internalType": "string",
          "name": "_batchId",
          "type": "string"
        },
        {
          "components": [
            {
              "internalType": "uint256",
              "name": "temperature",
              "type": "uint256"
            },
            {
              "internalType": "uint256",
              "name": "humidity",
              "type": "uint256"
            },
            {
              "internalType": "uint256",
              "name": "shock",
              "type": "uint256"
            },
            {
              "internalType": "uint256",
              "name": "time",
              "type": "uint256"
            },
            {
              "internalType": "uint256",
              "name": "PrevCheckpoint",
              "type": "uint256"
            }
          ],
          "internalType": "struct MyContract.LogBatch[]",
          "name": "_log",
          "type": "tuple[]"
        }
      ],
      "name": "UpdateLogs",
      "outputs": [],
      "stateMutability": "nonpayable",
      "type": "function"
    },
    {
      "inputs": [
        {
          "internalType": "uint256",
          "name": "",
          "type": "uint256"
        },
        {
          "internalType": "uint256",
          "name": "",
          "type": "uint256"
        }
      ],
      "name": "batches",
      "outputs": [
        {
          "internalType": "uint256",
          "name": "temperature",
          "type": "uint256"
        },
        {
          "internalType": "uint256",
          "name": "humidity",
          "type": "uint256"
        },
        {
          "internalType": "uint256",
          "name": "shock",
          "type": "uint256"
        },
        {
          "internalType": "string",
          "name": "batchId",
          "type": "string"
        },
        {
          "internalType": "uint256",
          "name": "currentCheckpoint",
          "type": "uint256"
        }
      ],
      "stateMutability": "view",
      "type": "function"
    },
    {
      "inputs": [
        {
          "internalType": "uint256",
          "name": "_currentCheckpoint",
          "type": "uint256"
        }
      ],
      "name": "getBatch",
      "outputs": [
        {
          "components": [
            {
              "internalType": "uint256",
              "name": "temperature",
              "type": "uint256"
            },
            {
              "internalType": "uint256",
              "name": "humidity",
              "type": "uint256"
            },
            {
              "internalType": "uint256",
              "name": "shock",
              "type": "uint256"
            },
            {
              "internalType": "string",
              "name": "batchId",
              "type": "string"
            },
            {
              "internalType": "uint256",
              "name": "currentCheckpoint",
              "type": "uint256"
            }
          ],
          "internalType": "struct MyContract.Batch[]",
          "name": "",
          "type": "tuple[]"
        }
      ],
      "stateMutability": "view",
      "type": "function"
    },
    {
      "inputs": [
        {
          "internalType": "string",
          "name": "_batchId",
          "type": "string"
        }
      ],
      "name": "getLog",
      "outputs": [
        {
          "components": [
            {
              "internalType": "uint256",
              "name": "temperature",
              "type": "uint256"
            },
            {
              "internalType": "uint256",
              "name": "humidity",
              "type": "uint256"
            },
            {
              "internalType": "uint256",
              "name": "shock",
              "type": "uint256"
            },
            {
              "internalType": "uint256",
              "name": "time",
              "type": "uint256"
            },
            {
              "internalType": "uint256",
              "name": "PrevCheckpoint",
              "type": "uint256"
            }
          ],
          "internalType": "struct MyContract.LogBatch[]",
          "name": "",
          "type": "tuple[]"
        }
      ],
      "stateMutability": "view",
      "type": "function"
    },
    {
      "inputs": [
        {
          "internalType": "string",
          "name": "",
          "type": "string"
        },
        {
          "internalType": "uint256",
          "name": "",
          "type": "uint256"
        }
      ],
      "name": "logs",
      "outputs": [
        {
          "internalType": "uint256",
          "name": "temperature",
          "type": "uint256"
        },
        {
          "internalType": "uint256",
          "name": "humidity",
          "type": "uint256"
        },
        {
          "internalType": "uint256",
          "name": "shock",
          "type": "uint256"
        },
        {
          "internalType": "uint256",
          "name": "time",
          "type": "uint256"
        },
        {
          "internalType": "uint256",
          "name": "PrevCheckpoint",
          "type": "uint256"
        }
      ],
      "stateMutability": "view",
      "type": "function"
    },
    {
      "inputs": [
        {
          "internalType": "string",
          "name": "_batchId",
          "type": "string"
        },
        {
          "internalType": "uint256",
          "name": "_temperature",
          "type": "uint256"
        },
        {
          "internalType": "uint256",
          "name": "_humidity",
          "type": "uint256"
        },
        {
          "internalType": "uint256",
          "name": "_shock",
          "type": "uint256"
        },
        {
          "internalType": "uint256",
          "name": "_currentCheckpoint",
          "type": "uint256"
        }
      ],
      "name": "manufacturer_insert_data",
      "outputs": [],
      "stateMutability": "nonpayable",
      "type": "function"
    },
    {
      "inputs": [
        {
          "internalType": "address[]",
          "name": "_checkpoint",
          "type": "address[]"
        }
      ],
      "name": "settingCheckPoint",
      "outputs": [],
      "stateMutability": "nonpayable",
      "type": "function"
    },
    {
      "inputs": [
        {
          "internalType": "address",
          "name": "_manufacturer",
          "type": "address"
        }
      ],
      "name": "settingManufacturer",
      "outputs": [],
      "stateMutability": "nonpayable",
      "type": "function"
    },
    {
      "inputs": [
        {
          "internalType": "uint256",
          "name": "_currentCheckpoint",
          "type": "uint256"
        },
        {
          "internalType": "string",
          "name": "_batchId",
          "type": "string"
        },
        {
          "internalType": "uint256",
          "name": "_temperature",
          "type": "uint256"
        },
        {
          "internalType": "uint256",
          "name": "_humidity",
          "type": "uint256"
        },
        {
          "internalType": "uint256",
          "name": "_shock",
          "type": "uint256"
        }
      ],
      "name": "updateBatch",
      "outputs": [],
      "stateMutability": "nonpayable",
      "type": "function"
    }
  ],
  "bytecode": "0x6080604052600060055534801561001557600080fd5b50336000806101000a81548173ffffffffffffffffffffffffffffffffffffffff021916908373ffffffffffffffffffffffffffffffffffffffff160217905550611be6806100656000396000f3fe608060405234801561001057600080fd5b50600436106100935760003560e01c80635d47964b116100665780635d47964b146101485780638f8ee95b1461017c578063901202ae14610198578063e3890fb9146101b4578063f3abd145146101d057610093565b8063267398b114610098578063369c487b146100cc5780633cc7b33d146100fc5780635ac4428214610118575b600080fd5b6100b260048036038101906100ad9190610f7f565b6101ec565b6040516100c3959493929190610fea565b60405180910390f35b6100e660048036038101906100e1919061103d565b610255565b6040516100f391906111ac565b60405180910390f35b61011660048036038101906101119190611327565b610304565b005b610132600480360381019061012d919061139f565b6103f2565b60405161013f919061158c565b60405180910390f35b610162600480360381019061015d91906115ae565b61051e565b604051610173959493929190611638565b60405180910390f35b61019660048036038101906101919190611692565b6105f9565b005b6101b260048036038101906101ad9190611729565b6106d3565b005b6101ce60048036038101906101c9919061181e565b61083d565b005b6101ea60048036038101906101e5919061190e565b61090f565b005b600382805160208101820180518482526020830160208501208183528095505050505050818154811061021e57600080fd5b9060005260206000209060050201600091509150508060000154908060010154908060020154908060030154908060040154905085565b60606003826040516102679190611993565b9081526020016040518091039020805480602002602001604051908101604052809291908181526020016000905b828210156102f957838290600052602060002090600502016040518060a00160405290816000820154815260200160018201548152602001600282015481526020016003820154815260200160048201548152505081526020019060010190610295565b505050509050919050565b60006003836040516103169190611993565b9081526020016040518091039020905060005b82518110156103be5781838281518110610346576103456119aa565b5b602002602001015190806001815401808255809150506001900390600052602060002090600502016000909190919091506000820151816000015560208201518160010155604082015181600201556060820151816003015560808201518160040155505080806103b690611a08565b915050610329565b50806003846040516103d09190611993565b90815260200160405180910390209080546103ec929190610a45565b50505050565b606060046000838152602001908152602001600020805480602002602001604051908101604052809291908181526020016000905b8282101561051357838290600052602060002090600502016040518060a001604052908160008201548152602001600182015481526020016002820154815260200160038201805461047890611a80565b80601f01602080910402602001604051908101604052809291908181526020018280546104a490611a80565b80156104f15780601f106104c6576101008083540402835291602001916104f1565b820191906000526020600020905b8154815290600101906020018083116104d457829003601f168201915b5050505050815260200160048201548152505081526020019060010190610427565b505050509050919050565b6004602052816000526040600020818154811061053a57600080fd5b90600052602060002090600502016000915091505080600001549080600101549080600201549080600301805461057090611a80565b80601f016020809104026020016040519081016040528092919081815260200182805461059c90611a80565b80156105e95780601f106105be576101008083540402835291602001916105e9565b820191906000526020600020905b8154815290600101906020018083116105cc57829003601f168201915b5050505050908060040154905085565b6000600460008781526020019081526020016000209050806040518060a00160405280868152602001858152602001848152602001878152602001888152509080600181540180825580915050600190039060005260206000209060050201600090919091909150600082015181600001556020820151816001015560408201518160020155606082015181600301908051906020019061069b929190610acf565b5060808201518160040155505080600460008881526020019081526020016000209080546106ca929190610b55565b50505050505050565b600160009054906101000a900473ffffffffffffffffffffffffffffffffffffffff1673ffffffffffffffffffffffffffffffffffffffff163373ffffffffffffffffffffffffffffffffffffffff1614610763576040517f08c379a000000000000000000000000000000000000000000000000000000000815260040161075a90611afe565b60405180910390fd5b6000600460008381526020019081526020016000209050806040518060a001604052808781526020018681526020018581526020018881526020018481525090806001815401808255809150506001900390600052602060002090600502016000909190919091506000820151816000015560208201518160010155604082015181600201556060820151816003019080519060200190610805929190610acf565b506080820151816004015550508060046000848152602001908152602001600020908054610834929190610b55565b50505050505050565b60008054906101000a900473ffffffffffffffffffffffffffffffffffffffff1673ffffffffffffffffffffffffffffffffffffffff163373ffffffffffffffffffffffffffffffffffffffff16146108cb576040517f08c379a00000000000000000000000000000000000000000000000000000000081526004016108c290611b90565b60405180910390fd5b80600160006101000a81548173ffffffffffffffffffffffffffffffffffffffff021916908373ffffffffffffffffffffffffffffffffffffffff16021790555050565b60008054906101000a900473ffffffffffffffffffffffffffffffffffffffff1673ffffffffffffffffffffffffffffffffffffffff163373ffffffffffffffffffffffffffffffffffffffff161461099d576040517f08c379a000000000000000000000000000000000000000000000000000000000815260040161099490611b90565b60405180910390fd5b60008054906101000a900473ffffffffffffffffffffffffffffffffffffffff1673ffffffffffffffffffffffffffffffffffffffff163373ffffffffffffffffffffffffffffffffffffffff1614610a2b576040517f08c379a0000000000000000000000000000000000000000000000000000000008152600401610a2290611b90565b60405180910390fd5b8060029080519060200190610a41929190610bf5565b5050565b828054828255906000526020600020906005028101928215610abe5760005260206000209160050282015b82811115610abd5782826000820154816000015560018201548160010155600282015481600201556003820154816003015560048201548160040155505091600501919060050190610a70565b5b509050610acb9190610c7f565b5090565b828054610adb90611a80565b90600052602060002090601f016020900481019282610afd5760008555610b44565b82601f10610b1657805160ff1916838001178555610b44565b82800160010185558215610b44579182015b82811115610b43578251825591602001919060010190610b28565b5b509050610b519190610cbe565b5090565b828054828255906000526020600020906005028101928215610be45760005260206000209160050282015b82811115610be35782826000820154816000015560018201548160010155600282015481600201556003820181600301908054610bbc90611a80565b610bc7929190610cdb565b5060048201548160040155505091600501919060050190610b80565b5b509050610bf19190610d68565b5090565b828054828255906000526020600020908101928215610c6e579160200282015b82811115610c6d5782518260006101000a81548173ffffffffffffffffffffffffffffffffffffffff021916908373ffffffffffffffffffffffffffffffffffffffff16021790555091602001919060010190610c15565b5b509050610c7b9190610cbe565b5090565b5b80821115610cba57600080820160009055600182016000905560028201600090556003820160009055600482016000905550600501610c80565b5090565b5b80821115610cd7576000816000905550600101610cbf565b5090565b828054610ce790611a80565b90600052602060002090601f016020900481019282610d095760008555610d57565b82601f10610d1a5780548555610d57565b82800160010185558215610d5757600052602060002091601f016020900482015b82811115610d56578254825591600101919060010190610d3b565b5b509050610d649190610cbe565b5090565b5b80821115610dab5760008082016000905560018201600090556002820160009055600382016000610d9a9190610daf565b600482016000905550600501610d69565b5090565b508054610dbb90611a80565b6000825580601f10610dcd5750610dec565b601f016020900490600052602060002090810190610deb9190610cbe565b5b50565b6000604051905090565b600080fd5b600080fd5b600080fd5b600080fd5b6000601f19601f8301169050919050565b7f4e487b7100000000000000000000000000000000000000000000000000000000600052604160045260246000fd5b610e5682610e0d565b810181811067ffffffffffffffff82111715610e7557610e74610e1e565b5b80604052505050565b6000610e88610def565b9050610e948282610e4d565b919050565b600067ffffffffffffffff821115610eb457610eb3610e1e565b5b610ebd82610e0d565b9050602081019050919050565b82818337600083830152505050565b6000610eec610ee784610e99565b610e7e565b905082815260208101848484011115610f0857610f07610e08565b5b610f13848285610eca565b509392505050565b600082601f830112610f3057610f2f610e03565b5b8135610f40848260208601610ed9565b91505092915050565b6000819050919050565b610f5c81610f49565b8114610f6757600080fd5b50565b600081359050610f7981610f53565b92915050565b60008060408385031215610f9657610f95610df9565b5b600083013567ffffffffffffffff811115610fb457610fb3610dfe565b5b610fc085828601610f1b565b9250506020610fd185828601610f6a565b9150509250929050565b610fe481610f49565b82525050565b600060a082019050610fff6000830188610fdb565b61100c6020830187610fdb565b6110196040830186610fdb565b6110266060830185610fdb565b6110336080830184610fdb565b9695505050505050565b60006020828403121561105357611052610df9565b5b600082013567ffffffffffffffff81111561107157611070610dfe565b5b61107d84828501610f1b565b91505092915050565b600081519050919050565b600082825260208201905092915050565b6000819050602082019050919050565b6110bb81610f49565b82525050565b60a0820160008201516110d760008501826110b2565b5060208201516110ea60208501826110b2565b5060408201516110fd60408501826110b2565b50606082015161111060608501826110b2565b50608082015161112360808501826110b2565b50505050565b600061113583836110c1565b60a08301905092915050565b6000602082019050919050565b600061115982611086565b6111638185611091565b935061116e836110a2565b8060005b8381101561119f5781516111868882611129565b975061119183611141565b925050600181019050611172565b5085935050505092915050565b600060208201905081810360008301526111c6818461114e565b905092915050565b600067ffffffffffffffff8211156111e9576111e8610e1e565b5b602082029050602081019050919050565b600080fd5b600080fd5b600060a0828403121561121a576112196111ff565b5b61122460a0610e7e565b9050600061123484828501610f6a565b600083015250602061124884828501610f6a565b602083015250604061125c84828501610f6a565b604083015250606061127084828501610f6a565b606083015250608061128484828501610f6a565b60808301525092915050565b60006112a361129e846111ce565b610e7e565b90508083825260208201905060a084028301858111156112c6576112c56111fa565b5b835b818110156112ef57806112db8882611204565b84526020840193505060a0810190506112c8565b5050509392505050565b600082601f83011261130e5761130d610e03565b5b813561131e848260208601611290565b91505092915050565b6000806040838503121561133e5761133d610df9565b5b600083013567ffffffffffffffff81111561135c5761135b610dfe565b5b61136885828601610f1b565b925050602083013567ffffffffffffffff81111561138957611388610dfe565b5b611395858286016112f9565b9150509250929050565b6000602082840312156113b5576113b4610df9565b5b60006113c384828501610f6a565b91505092915050565b600081519050919050565b600082825260208201905092915050565b6000819050602082019050919050565b600081519050919050565b600082825260208201905092915050565b60005b83811015611432578082015181840152602081019050611417565b83811115611441576000848401525b50505050565b6000611452826113f8565b61145c8185611403565b935061146c818560208601611414565b61147581610e0d565b840191505092915050565b600060a08301600083015161149860008601826110b2565b5060208301516114ab60208601826110b2565b5060408301516114be60408601826110b2565b50606083015184820360608601526114d68282611447565b91505060808301516114eb60808601826110b2565b508091505092915050565b60006115028383611480565b905092915050565b6000602082019050919050565b6000611522826113cc565b61152c81856113d7565b93508360208202850161153e856113e8565b8060005b8581101561157a578484038952815161155b85826114f6565b94506115668361150a565b925060208a01995050600181019050611542565b50829750879550505050505092915050565b600060208201905081810360008301526115a68184611517565b905092915050565b600080604083850312156115c5576115c4610df9565b5b60006115d385828601610f6a565b92505060206115e485828601610f6a565b9150509250929050565b600082825260208201905092915050565b600061160a826113f8565b61161481856115ee565b9350611624818560208601611414565b61162d81610e0d565b840191505092915050565b600060a08201905061164d6000830188610fdb565b61165a6020830187610fdb565b6116676040830186610fdb565b818103606083015261167981856115ff565b90506116886080830184610fdb565b9695505050505050565b600080600080600060a086880312156116ae576116ad610df9565b5b60006116bc88828901610f6a565b955050602086013567ffffffffffffffff8111156116dd576116dc610dfe565b5b6116e988828901610f1b565b94505060406116fa88828901610f6a565b935050606061170b88828901610f6a565b925050608061171c88828901610f6a565b9150509295509295909350565b600080600080600060a0868803121561174557611744610df9565b5b600086013567ffffffffffffffff81111561176357611762610dfe565b5b61176f88828901610f1b565b955050602061178088828901610f6a565b945050604061179188828901610f6a565b93505060606117a288828901610f6a565b92505060806117b388828901610f6a565b9150509295509295909350565b600073ffffffffffffffffffffffffffffffffffffffff82169050919050565b60006117eb826117c0565b9050919050565b6117fb816117e0565b811461180657600080fd5b50565b600081359050611818816117f2565b92915050565b60006020828403121561183457611833610df9565b5b600061184284828501611809565b91505092915050565b600067ffffffffffffffff82111561186657611865610e1e565b5b602082029050602081019050919050565b600061188a6118858461184b565b610e7e565b905080838252602082019050602084028301858111156118ad576118ac6111fa565b5b835b818110156118d657806118c28882611809565b8452602084019350506020810190506118af565b5050509392505050565b600082601f8301126118f5576118f4610e03565b5b8135611905848260208601611877565b91505092915050565b60006020828403121561192457611923610df9565b5b600082013567ffffffffffffffff81111561194257611941610dfe565b5b61194e848285016118e0565b91505092915050565b600081905092915050565b600061196d826113f8565b6119778185611957565b9350611987818560208601611414565b80840191505092915050565b600061199f8284611962565b915081905092915050565b7f4e487b7100000000000000000000000000000000000000000000000000000000600052603260045260246000fd5b7f4e487b7100000000000000000000000000000000000000000000000000000000600052601160045260246000fd5b6000611a1382610f49565b91507fffffffffffffffffffffffffffffffffffffffffffffffffffffffffffffffff821415611a4657611a456119d9565b5b600182019050919050565b7f4e487b7100000000000000000000000000000000000000000000000000000000600052602260045260246000fd5b60006002820490506001821680611a9857607f821691505b60208210811415611aac57611aab611a51565b5b50919050565b7f6f6e6c79206d616e7566616374757265732063616e2073657420746869730000600082015250565b6000611ae8601e836115ee565b9150611af382611ab2565b602082019050919050565b60006020820190508181036000830152611b1781611adb565b9050919050565b7f4f6e6c79206f776e65722063616e2063616c6c20746869732066756e6374696f60008201527f6e00000000000000000000000000000000000000000000000000000000000000602082015250565b6000611b7a6021836115ee565b9150611b8582611b1e565b604082019050919050565b60006020820190508181036000830152611ba981611b6d565b905091905056fea26469706673582212202233821ae1773ea8a0128edfdb1aaf37705422b2058714012fb6cbbc2b23198464736f6c63430008090033",
  "linkReferences": {},
  "deployedLinkReferences": {}
}